:100000000C9495010C94B2010C94B2010C94361826
:100010000C94B2010C94B2010C94B2010C94B20194
:100020000C94B2010C94B2010C9464160C944B170E
:100030000C9419160C94B2010C94B2010C94B201F8
:100040000C94B2010C94B2010C94B2010C94B20164
:100050000C94B2010C9440160C94B2010C94B201B1
:100060000C94B2010C94B2010C94B2010C94B20144
:100070000C94B2010C94B2010C94B2010C94B20134
:100080000C94B2010C94B2010C94B2010C94B20124
:100090000C94B2010C94B2010C94B2010C94B20114
:1000A0000C94B2010C94B2010C94B2010501090642
:1000B000A101050719E029E715002501950875013B
:1000C00081029501750881010507190029FF1500B6
:1000D00026FF0095067508810005081901290515F8
:1000E000002501950575019102950175039101C0E7
:1000F00009022200010100A0FA0904000001030125
:1001000001000921110100012244000705810308B3
:1001100000011201000200000008D8042DEB0001CC
:10012000010200010E034C0069006C0079003500EB
:100130003800000010036C0069006C006900750055
:100140006D00730000000403090429001E001F0055
:100150002000210022002B0014001A0008001500C6
:100160001700350004001600070009000A00E1002E
:100170001D001B000600190005000000E200E3005E
:10018000E0002C002F003500270026002500240069
:1001900023002D00130012000C0018001C00340076
:1001A00033000F000E000D000B00E5003800370093
:1001B0003600100011000000E7002A00225228003B
:1001C00030000100010001000100010001003A00BF
:1001D0003B003C003D003E003F0035001E021F0278
:1001E00020022102220201000100010001000100A1
:1001F00001000000010001000100010001000100F8
:10020000010001000100010001004500440043001D
:100210004200410040003502270226022502240246
:100220002302310230022F022E022D0200000000B4
:1002300001000100010001000100010001000100B6
:1002400001000100010035001E001F0020002100F8
:1002500022003A003B003C003D003E003F004000D1
:10026000410042004300440045000000010001003D
:100270000100010001000100010001000100010076
:1002800001000100270026002500240023000000B3
:100290004F005200510050000000310030002F008C
:1002A0002E002D002E0200000100010001000100BF
:1002B000010000000000000000000000000000003D
:1002C000000000000000000000000000000000002E
:1002D000000000000000000000000000000000001E
:1002E000000000000100010001000100000000000A
:1002F00000000000000000000000000000000000FE
:1003000000000000000000000000000000000000ED
:1003100000000000000000000000000000000000DD
:100320000100010001000100000011241FBECFEFF9
:10033000DAE0DEBFCDBF11E0A0E0B1E0E6E5F4E336
:1003400002C005900D92A433B107D9F722E0A4E3CF
:10035000B1E001C01D92AE31B207E1F70E941A145C
:100360000C94F6190C9400009093D6018093D5015B
:1003700008959C0186709927069731F42860309380
:10038000D8012093D7010895277FF9CF21E030E0ED
:1003900002C0220F331F8A95E2F78091D701909116
:1003A000D801822B932B0E94B901089521E030E0FF
:1003B00002C0220F331F8A95E2F720953095809175
:1003C000D7019091D801822393230E94B901089507
:1003D0009A3090F5863080F5E82FF0E086E0989F1F
:1003E000E00DF11D11248E2F877041E001C0440FF4
:1003F0008A95EAF783E0F695E7958A95E1F7EE0F9F
:10040000FF1FEE0FFF1FE055FE4F20E030E070E0D1
:100410005191DF01CB01022E02C0969587950A9477
:10042000E2F7817081958527842385278E932F5F3E
:100430003F4F2430310561F708959A3078F58630C2
:1004400068F5E82FF0E086E0989FE00DF11D11249B
:100450009E2F977083E0F695E7958A95E1F7EE0F6A
:10046000FF1FEE0FFF1FE055FE4F40E050E080E021
:10047000219130E0092E02C0369527950A94E2F7C3
:1004800021703327042E01C0220F0A94EAF7822B31
:100490004F5F5F4F4430510559F7089580E008954C
:1004A0008091DE019091DD01981301C008958F5F66
:1004B0008770FACF9091D901809589238093D901D3
:1004C000282F277021110DC0891759F09091DB0159
:1004D00092FF07C08695869586950E94D601109258
:1004E000D9010895982F90958091D2018923809306
:1004F000D20108957A30B8F46630A8F48430B0F4AC
:10050000E62FF0E096E0799FE00DF11D11249CE3C9
:10051000899FE00DF11D1124EE0FFF1FE65BFE4FDA
:1005200085919591089580E090E0089581E0FCCF59
:100530009C01803E910509F448C0D8F481339105AF
:1005400009F47DC048F48932910509F46DC08A9799
:1005500009F47CC0C90108958933910551F18238AD
:10056000910539F1C597B1F78091DA0185FFF2CF96
:1005700029C0843E910509F447C048F4823E9105A4
:1005800099F1833E9105A9F121EE30E0E3CF863E5B
:10059000910509F444C0873E9105E1F68091DA01A6
:1005A00083FD61C09091DB0191FF2BC024EE30E010
:1005B000D1CF8091DA018370811152C08091DB012B
:1005C00083FFC8CF29E230E0C5CF8091DA0180FDFA
:1005D00033C09091DB0190FFBDCF23EE30E084FF6C
:1005E000B9CF20E030E0B6CF8091DA0182FDF5CFBF
:1005F000B1CF8091DA0182FD30C09091DB0190FD96
:100600002FC084FFA7CFEDCF8091DB0181FFA2CF68
:100610008091DA0127EE30E084FDE3CF9BCF80911B
:10062000DA0183FDF7CF96CF8091DA0185FD1EC0F8
:100630008091DB0183FF8ECF29E330E08BCF809167
:10064000DA0186FF87CF2AE230E084CF8091DA0199
:1006500086FF80CF21E330E07DCF22EE30E07ACFFD
:1006600020EE30E077CF26EE30E074CF25E330E0A7
:1006700071CF9091DA0192FF10C041E0282F2471D0
:10068000243009F040E031E0282F2871283009F0AB
:1006900030E0431711F02CE0822793FF10C041E0B7
:1006A000282F2471243109F040E031E0282F2871EF
:1006B000283109F030E0431711F02CE08227309107
:1006C000DB0130FF10C051E0282F2171213009F0EB
:1006D00050E041E0282F2871283009F040E05417FD
:1006E00011F029E0822731FF10C041E0282F21714D
:1006F000213109F040E031E0282F2871283109F03C
:1007000030E0431711F029E0822794FD877E089599
:100710001F93CF93DF930E949802EC01811522E58D
:10072000920708F047C0811540E5940708F0BEC065
:10073000883E9105E0F4803E910560F4853A91058C
:1007400070F4049738F481E0219709F080E0C82F15
:1007500050E0D52FCE01DF91CF911F9108958D5C90
:100760009109D0654397B0F3C0E0D0E0F3CFC11555
:1007700080E4D807A8F4C11590E2D90708F0ACC00E
:10078000CE019A9581159F4178F78D2F0E943903EC
:10079000182FCE0199270E949802EC01D12BDACFB5
:1007A000CE0199270E949802CC27DF70C82BD92B45
:1007B000D06AD0CF803842E59407C8F5803652E53C
:1007C000950708F056C0C03482E5D807D0F4C0328F
:1007D00092E5D90708F046C08C2F8695869520E2D1
:1007E000829FC0011124C37021E030E0A90102C042
:1007F000440F551FCA95E2F7EA01C82BD92BDD68D3
:10080000A9CF8C2F86958695877050E2859FC00171
:100810001124C37021E030E0A90102C0440F551F2C
:10082000CA95E2F7EA01C82BD92BDC6893CF803C4C
:1008300052E5950758F48F71C03AD24578F590E0AB
:10084000982F8827EC01C46FD06A84CF805C9245D2
:10085000809708F089CFDC2FCC27CC27DF71C06FC1
:10086000D06A78CFCF71D0E0DC2FCC27C16FD06AAF
:1008700071CF86958695877020E2829FC0011124F2
:10088000C37021E030E0A90102C0440F551FCA9592
:10089000E2F7EA01C82BD92BDA685CCF0E94390352
:1008A000C82FD0E0DC2FCC27D06254CF8F710E94AC
:1008B000390393E0CC0FDD1F9A95E1F7CC27DF7069
:1008C000282F30E084FF04C050E1859F900111245F
:1008D000C22BD32BD0693ECF8D2F8F710E9439034D
:1008E000182FCE0199270E949802EC01D12BDCCF62
:1008F000A0E0B0E0EEE7F4E00C945A198C01E0902F
:10090000D701F090D8018091D5019091D601E82AC5
:10091000F92ACFE0D0E0CC24C394D12CC6010C2E10
:1009200002C0880F991F0A94E2F78E219F21892B1C
:1009300049F4219798F7B12C8B2DCDB7DEB7E9E0BC
:100940000C947619BC2EB8018C2F0E947A020E945A
:100950008803019771F3F0CF0F931F93CF93FC019E
:10096000858100811181811591F0611581F0C801A7
:100970000E947804C82F682FC8010E94E801B801BE
:100980008C2F0E947A02CF911F910F910895C80178
:100990000E941D02C82FF3CFCF93DF93D82FC92F0A
:1009A0000E9478046D2F7C2F0E947A020E94880397
:1009B000DF91CF910895FC0184818115A1F08081A0
:1009C00091810E94CC04282F92959F70963099F0C7
:1009D00060F4925F9F70923030F4203FB1F038F4B1
:1009E00081E0283E38F080E008959A5FF3CF81E0FF
:1009F000243FC9F7089591E0213F09F090E081E09C
:100A0000283E08F080E0892B089581E0089580E079
:100A10000895F894E82FE295EF70F0E041A18F700F
:100A200021E030E0B90102C0660F771F8A95E2F736
:100A3000CB01962F9095942391A392A1892B82A309
:100A40007894089580919E01811559F0E091A60156
:100A5000F091A701309729F00190F081E02D0995E0
:100A6000089580E008959C01FC0132968FEF90E09C
:100A70004191461751F08F3F19F4411101C0892F60
:100A80009F5F9630A9F78F3F09F40895280F311D15
:100A900087FD3A95F901628308959C01FC01329625
:100AA000285F3F4F8191861302C0DF011E92E2173B
:100AB000F307C1F708958091010108952FB7F894C5
:100AC00080915E0190915F01A0916001B091610100
:100AD0002FBF08952FB7F89460915E0170915F0168
:100AE00080916001909161012FBF0895CF92DF92B4
:100AF000EF92FF9280919E01811559F00E946A0544
:100B00006B017C01C701B601FF90EF90DF90CF90A1
:100B100008950E946A05C090A001D090A101E090C4
:100B2000A201F090A301C60ED71EE81EF91EEACF5F
:100B3000089508950895FC019B01809154019091BE
:100B400055018617970740F0672B29F48091E8003C
:100B50008E778093E800C90140E0009741F441118D
:100B600006C08091E80082FF2FC080E008952091A8
:100B700070012115A9F12530A9F12091E80023FD8C
:100B80002DC02091E80022FDECCF2091E80020FF4D
:100B9000E4CF3091F3002091F200009719F0283053
:100BA000310558F041E02830310509F040E020914E
:100BB000E8002E772093E800D0CF41914093F100D8
:100BC00001972F5F3F4FE9CF80917001811541F070
:100BD000853041F08091E80083FFC3CF81E0089524
:100BE00082E0089583E0089580914E0187FF13C04D
:100BF0008091E80082FF06C08091E8008B778093A7
:100C0000E8000895809170018111F2CF08958091DC
:100C100070018115D9F38091E80080FFF8CF8091B1
:100C2000E8008E77ECCF2091E4003091E50095E666
:100C3000A9012091EC00822F817020FF06C08091D5
:100C4000E80080FF06C080E008952091E80022FDC2
:100C50001AC080917001811589F0853089F08091EA
:100C6000EB0085FD0FC02091E4003091E5004217B4
:100C70005307F9F29A95E1F684E0089582E0089529
:100C800083E0089581E00895E8EDF0E080818E7FB3
:100C900080831092E2001092DA001092E100A0EE40
:100CA000B0E08C9181608C9380818F77808319BCB8
:100CB000A7EDB0E08C918E7F8C9380818F7E8083B6
:100CC00010924D010895FC01AC014B5F5F4F8FEF17
:100CD00061E39191892728E030E0982F990F87FFF1
:100CE00009C0892F862721503040B9F7E417F5074E
:100CF00081F70895892FF7CF982F9093E9008917EE
:100D000071F05091EC002091ED004091F00021FD38
:100D100009C09F5F973089F78093E9000895562FA7
:100D200040E022E03091EB003E7F3093EB003091C9
:100D3000ED003D7F3093ED003091EB00316030935A
:100D4000EB005093EC002093ED004093F0002091D5
:100D5000EE0027FDDECF0895A0E0B0E0E2EBF6E084
:100D60000C945B19C8EDD0E088818F7E8883E7ED15
:100D7000F0E080818160808384E082BF81E08093A5
:100D80004D0188818E7F888302EE10E0F801108289
:100D90001092DA0081EEC82ED12CF60110828881E3
:100DA0008F77888388818068888388818F7D888316
:100DB00019BC1092700110924C0110926F011092A8
:100DC0004B0190EEE92EF12CF70180818B7F80831F
:100DD00088818160888360E080E00E947C06F60163
:100DE00080818E7F8083F801808181608083808113
:100DF00088608083F70180818E7F80838881806115
:100E00008883CDB7DEB7E8E00C947719E091DE0176
:100E10009091DD0127E0E91302C080E00895AE2F34
:100E2000B0E02E9FF0011124E152FE4F31813613C4
:100E300006C03081381303C03581341304C0FD016E
:100E40003196E770E8CF81E008950F931F93CF9319
:100E5000DF938C0180917001843051F581E08093A3
:100E6000E9008FEF9091E80095FD06C095ED9A9509
:100E7000F1F700008A95B1F78091E80085FF18C06E
:100E80000E94130681110FC0C8E0D0E08091E800F5
:100E900085FD13C08091E8008E778093E8000E9462
:100EA0001306811599F38091E8008E778093E8000E
:100EB000DF91CF911F910F910895F80181918F01DA
:100EC0008093F100219711F7EECFCF93DF93D82FC6
:100ED000C92F0E94250788E0ED2FFC2FA6E5B1E081
:100EE00001900D928A95E1F7DF91CF910895A0E0EE
:100EF000B0E0EDE7F7E00C945919182F092FB62E42
:100F0000A72E7A01809148019AE0C92ED12C8A300F
:100F100018F0CC24C394D12CC1E0D0E06B2D7A2DF5
:100F2000812F902FF7010995811116C02196CC16BB
:100F3000DD0694F0CC9FC001CD9F900D900D112443
:100F400020E030E045E34A95F1F700002F5F3F4F86
:100F500028173907B9F7E2CFCDB7DEB7EAE00C942E
:100F600075199091DB0192FB222720F9281779F05F
:100F700080FB92F99093DB016091DA017091DB01C3
:100F800084E090E00E94CA1982E00E945A0208950B
:100F90008091D2019091DC01892B4091D3014115C0
:100FA00089F090E028E331E0F90150812F5F3F4F55
:100FB00051119F5F51E02E333507B1F79111109217
:100FC000D301842B8093360148E050E068EA71E059
:100FD00086E391E00E94E019892BA9F088E0E6E31E
:100FE000F1E0A8EAB1E001900D928A95E1F7E09175
:100FF000A601F091A701309731F00280F381E02D36
:1010000086E391E0099508951092D201E8E3F1E0BA
:1010100086E0DF011D928A95E9F71092DC010E94BB
:10102000C80708950E9404082FEF84E39CE0215034
:1010300080409040E1F700C0000088E19AE00FB6E0
:10104000F894A895809360000FBE90936000FFCF46
:10105000AAE2B0E0EEE2F8E00C9460198EE491E0D0
:10106000FC0101962091F100208321E08635920752
:10107000B9F780914F01893009F45AC0C8F4823021
:1010800009F4B6C0833009F485C0813091F18091B4
:10109000E80083FFEAC080914E0190914F019A30A1
:1010A00008F0E3C0E92FF0E0E850F64E0C94881900
:1010B0008A3009F48CC08B3051F780914E01813217
:1010C00031F78091520190915301892B01F7809162
:1010D000E800877F8093E8000E94F40581E090910A
:1010E0005001911101C080E0809302010E94040828
:1010F000CECF80914E01813A51F68091E800877FF2
:101100008093E8008091520190915301892B61F006
:1011100060E080E090E070E00E949B058091E80034
:101120008B778093E800B3CF68E086E591E0F3CF5A
:1011300080914E01813209F0AACF809152019091A5
:101140005301892B09F0A3CF8091E800877F80931A
:10115000E8008091E80082FF18C09091F300809130
:10116000F200029731F48091F100813011F0863065
:1011700021F48091F100809301018091E8008B7748
:101180008093E8000E94F40582CF80917001811164
:10119000E0CF7DCF80914E01813A09F078CF8091E8
:1011A000520190915301892B09F071CF8091E80091
:1011B000877F8093E8008091E80080FFFCCF8091DA
:1011C00002018093F1008091E8008E77D9CF809161
:1011D0004E01813209F05BCF8091E800877F8093D8
:1011E000E8000E94F40580915101809300014FCFE7
:1011F00080914E01813A09F04ACF8091E800877FC3
:101200008093E8008091E80080FFFCCF809100018E
:10121000D8CF803889F0823841F5809152018F70A3
:10122000873018F58093E9008091EB0085FB8827D3
:1012300080F91092E90006C080916F01880F9091AB
:101240004B01892B9091E800977F9093E800809361
:10125000F1001092F1008091E8008E7723C0811197
:1012600016C080915001813011F18091E80083FF18
:101270000AC08091E800877F8093E8008091EB00AE
:1012800080628093EB00AA96E3E00C947C19823094
:1012900061F780915001811589F01092E9008091E9
:1012A000E800877F8093E8000E94F405DECF81E0AC
:1012B000933009F080E080936F01EFCF809152016D
:1012C0008F702FEF280F263080F68093E900209151
:1012D000EB0020FFE2CF933031F48091EB0080628D
:1012E0008093EB00DACF9091EB0090619093EB004C
:1012F00021E030E0A90102C0440F551F8A95E2F7B2
:101300004093EA001092EA008091EB008860E8CFF9
:101310008111ABCF109150011F778091E30080784D
:10132000812B8093E3008091E800877F8093E80021
:101330000E94F4058091E80080FFFCCF8091E300DB
:1013400080688093E30083E0111101C082E0809304
:1013500070018BCF8058823008F087CF20915001E8
:10136000309151012C3D53E0350799F583E08A8394
:101370008AE289834FB7F894DE01139620E03EE0BD
:1013800051E2E32FF0E050935700849120FF03C017
:1013900082958F703F5F8F708A30C8F0895C90E0D3
:1013A0008D939D932F5F243161F74FBF8091E800AB
:1013B000877F8093E8006AE270E0CE0101960E9488
:1013C0009B058091E8008B778093E8004ECF805D8D
:1013D000E6CF832F99278330910501F160F48130A6
:1013E000910509F46BC0029709F03FCF82E290E0CB
:1013F000E0EFF0E027C0209152013091530181329B
:10140000910509F453C0829709F02FCF232B09F0DF
:101410002CCF84E490E0ECEAF0E014C0C9019927F5
:101420002130A1F182309105C9F1892B09F01DCF3E
:10143000E6E4F1E0E4918E2F90E0E6E4F1E000973D
:1014400009F413CF2091E800277F2093E800209132
:101450005401309155018217930708F49C0140E034
:101460002115310581F541112EC08091E80082FDE2
:10147000A8CF80917001811509F4A3CF853009F4BC
:10148000A0CF8091E80083FFF0CF9BCFE4E3F1E0B1
:10149000E4918E2F90E0E4E3F1E0D1CFE4E2F1E0DB
:1014A000E4918E2F90E0E4E2F1E0C9CF232B09F024
:1014B000DCCE89E090E0E2E0F1E0C4CF82E190E0B0
:1014C000E2E1F1E0BFCF80917001811509F479CF9D
:1014D000853009F476CF8091E80083FD72CF80914A
:1014E000E80082FDC2CF8091E80080FFB9CF9091E3
:1014F000F3008091F2002115310519F08830910533
:1015000050F041E0089709F040E08091E8008E77C4
:101510008093E800A5CF44914093F100319621508B
:1015200031090196E8CF803809F09FCE8091E8001C
:10153000877F8093E80080914C018093F1008BCEEF
:10154000811193CE10915001123008F08ECE80910F
:10155000E800877F8093E80010934C010E94F40517
:10156000111579F084E08093700161EC81E00E94B4
:101570007C0680917001843051F482E080930301F5
:1015800074CE8091E30087FDEDCF81E0ECCF81E068
:10159000F5CFCF93C82F8115A9F08CEF8C0F813A2E
:1015A00098F4E8E3F1E08EE391E02191C217E9F0CD
:1015B0008E179F07D1F76C2F86E391E00E943305C9
:1015C0000E94C807CF91089580E28C0F8830D0F731
:1015D000C77021E030E001C0220FCA95EAF7809180
:1015E000D201822B8093D201EBCF6C2F86E391E066
:1015F0000E944D050E94C807DECF682F811551F06B
:101600008CEF860F813A38F486E391E00E944D0515
:101610000E94C807089580E2860F8830D8F7677067
:1016200081E001C0880F6A95EAF70E947202F0CF4C
:10163000811539F09091D201892B8093D2010E94BB
:10164000C8070895811521F00E9472020E94C80700
:101650000895AFE0B0E0EFE2FBE00C945219FE0118
:1016600031968AE0DF011D928A95E9F787E2E82E3C
:1016700081E0F82E8F019CE2692E91E0792E2F01F6
:10168000AA24A394B12C32E3832E31E0932EF701E8
:1016900081917F018F3F09F43EC0F894E82FE295D5
:1016A000EF70F0E021A18F70A50102C0440F551F1B
:1016B0008A95E2F7CA01922F982B91A392A1809567
:1016C000892382A3789400C0ECE2F1E031E0312C70
:1016D00021912F3F79F0A22FA295AF70A05EB0E0CC
:1016E0008C9190E02F7002C0959587952A95E2F72E
:1016F00080FF76C080E0382A330F8E169F0641F7B0
:10170000F70182918F3F11F00E94090550EA5A9526
:10171000F1F7D8013C920F5F1F4F6E147F0409F060
:10172000B6CF4AE050E0B20182E691E00E94E019B3
:101730006C01892B41F08AE0F201A2E6B1E0019050
:101740000D928A95E1F700916D0110E00F581E4F40
:10175000C114D10409F446C081E0809347010E947E
:101760005E05909346018093450180919E0181150D
:1017700009F492C07E01BBE0EB0EF11C85E0F7019D
:1017800011928A95E9F7809148018A3008F04EC09D
:1017900042EE5CE0B701C8010E947707811509F4A9
:1017A00069C047E85CE0B701C8010E94770781156E
:1017B00009F460C01092480180916C0190E045E00E
:1017C00050E0B7018F589E4F0E94E01921E020930E
:1017D0004401892B09F041C02F96E1E10C946E1968
:1017E000832F89CF80914701811509F4BECFE09006
:1017F0004501F09046010E945E058E199F090597EC
:1018000008F4B3CF45E050E062E671E0C8010E9401
:10181000E019892B41F085E0E2E6F1E0D801019082
:101820000D928A95E1F7109247019FCFC090420137
:10183000D09043010E945E058C199D09843F914020
:1018400008F0A6CF80914401811531F285E0D701DF
:101850001D928A95E9F710924401A0916C01B0E0C5
:10186000AF58BE4F85E0FE013B9601900D928A95E0
:10187000E1F7B2CF809148018F3F39F40E945E05B5
:101880009093430180934201DDCF8F5F80934801A5
:101890008A3008F491CFF2CF85E0F801ACE8B1E0EE
:1018A00001900D928A95E1F78CE891E00E94630621
:1018B00080938B01C0909101D0909201E0909301B0
:1018C000F090940180913E0190913F01A0914001E0
:1018D000B0914101C816D906EA06FB0609F47CCF8F
:1018E000C0923E01D0923F01E0924001F09241014E
:1018F0000E946A05C61AD70AE80AF90AC092A0012E
:10190000D092A101E092A201F092A30165CFCF9203
:10191000DF92EF92FF921F93CF93DF9300D000D01E
:10192000CDB7DEB7C0908701D0908801E0908901E3
:10193000F0908A010E946A056C197D098E099F0941
:1019400011E0643671058105910578F10E947605F4
:10195000DC01CB010296A11DB11D89839A83AB8363
:10196000BC83809120019091210185579E4F209149
:101970001F01422F50E0253010F044E050E0BE013E
:101980006F5F7F4F0E94ED1982E090E00E94DD18AA
:10199000182F811551F00E946A056093870170939A
:1019A00088018093890190938A01812F0F900F9075
:1019B0000F900F90DF91CF911F91FF90EF90DF90EC
:1019C000CF9008958F929F92AF92BF92FF920F9304
:1019D0001F93CF93DF9300D000D000D0CDB7DEB7F8
:1019E000F62E072F80E090E00E94DD18182F811559
:1019F00009F460C080911201482F50E0811511F068
:101A000041E050E0609113017091140165577E4FE1
:101A1000CE0106960E94ED1980909A0190909B014C
:101A2000A0909C01B0909D010E946A0568197909F7
:101A30008A099B09643671058105910538F48CE8A3
:101A400091E00E9463069E818917A1F181E090E0F8
:101A50000E94DD188115C9F180911A01482F50E0CC
:101A6000863010F045E050E060911B0170911C0140
:101A700065577E4FCE0101960E94ED198CE891E0EA
:101A80000E9463069E81891320C00E946A056093AC
:101A90009A0170939B0180939C0190939D0185E036
:101AA000FE013196A5E9B1E001900D928A95E1F72A
:101AB00081E00CC085E0ECE8F1E0DE0111960190D8
:101AC0000D928A95E1F71111EACF80E095E0E5E902
:101AD000F1E0AF2DB02F01900D929A95E1F70F90A4
:101AE0000F900F900F900F900F90DF91CF911F915B
:101AF0000F91FF90BF90AF909F908F900895EF92BD
:101B0000FF920F931F93CF93DF93C62FD42F122FE3
:101B10008115A9F06093D0010E945E0590934A015F
:101B200080934901C77081E001C0880FCA95EAF728
:101B30000E94180BCDB7DEB7E6E00C9479198091BE
:101B4000D001681335C0E0904901F0904A010E942D
:101B50005E058E199F098436910550F500E20D0F40
:101B6000CD17A9F0C770FF24F3948F2D01C0880F03
:101B7000CA95EAF70E94220B083048F48D2F87702F
:101B800001C0FF0C8A95EAF78F2D0E94180B812F58
:101B90000E94C90A812F0E94FD0A083058F6D770AA
:101BA00081E001C0880FDA95EAF70E94220BC2CFCC
:101BB000C77081E001C0880FCA95EAF7F6CFA0E0B0
:101BC000B0E0E5EEFDE00C945B198C01FC01848132
:101BD000811531F161E0C8010E94AC04EC01F8010B
:101BE0008581FE01E851FC47E730F105A8F5EE5F7D
:101BF000F54E0C94881926E241EE61EE0E947F0DAD
:101C00008091D9018770811559F0F801858181157E
:101C100039F08091DB0182FF03C082E00E945A020A
:101C2000CDB7DEB7E8E00C94771927E245EE65EE14
:101C3000E5CF26E241EE60EEE1CF27E245EE64EE2D
:101C4000DDCF26E241EE62EED9CF27E245EE66EE29
:101C5000D5CF28E241E0EBCF811509F491C3109272
:101C6000D0019E0130572332310508F099C384E03A
:101C700090E00E9496199093DB018093DA01FE01B7
:101C8000E150F047E232F10520F4E75FF54E0C94A5
:101C900088198091DA0181608093DA016091DA011C
:101CA0007091DB0184E090E00E94CA190E94040850
:101CB000A7CF8091DB0188608093DB01EFCF80911B
:101CC000DA018260E9CF8091DA018460E5CF80910A
:101CD000DA018860E1CF8091DB018160EDCF8091F6
:101CE000DB018260E9CF8091DA018061D5CF8091FC
:101CF000DA018062D1CF8091DA018064CDCF0E9479
:101D000004088091DA018068C7CF8091DA018C6085
:101D1000C3CF8091DB018360CFCF8091DA018E7FCA
:101D2000BBCF8091DB01877FC7CF8091DA018D7FA8
:101D3000B3CF8091DA018B7FAFCF8091DA01877FBB
:101D4000ABCF8091DB018E7FB7CF8091DB018D7FA0
:101D5000B3CF8091DA018F7E9FCF8091DA018F7DA2
:101D60009BCF8091DA018F7B97CF0E9404088091EE
:101D7000DA018F7791CF8091DA01837F8DCF8091C7
:101D8000DB018C7F99CF8091DA01992782FF9395AF
:101D900090FB82F990FB83F97FCF8091DB01982F34
:101DA000909590FB80F990FB81F986CF9091DA01B4
:101DB000892F8F7B96FF80646FCF0E9404089091DB
:101DC000DA01892F97FB87F9805866CF61E08EE0B2
:101DD00090E00E94AC1962CF60E0F9CF9091DA01F7
:101DE000892F8F7E94FF806157CF9091DA01892FE0
:101DF0008E7F90FF816050CF9091DB01892F877F8C
:101E000093FF886059CF9E01205E32452032310514
:101E1000A8F481112AC0CF7181E090E09C0102C03A
:101E2000220F331FCA95E2F7E901622F83E090E0A9
:101E30000E94AC19CE010E94B401E2CE8115A9F036
:101E4000CA353CE7D30709F4B1C008F07AC0C13005
:101E50009CE7D90709F4A8C0C330ECE7DE0709F412
:101E60009DC0C115DC4709F47DC0F8018581E08083
:101E7000F180811509F49EC0C7010E947804C82F23
:101E8000682FC7010E94E801B7018C2F0E947A02D7
:101E90000E948803D82FC92FF801E580C680C2941C
:101EA0002FE0C2228091D9018770811501F1DE2CCB
:101EB000E114F1F0892F807F803461F080E28D0F92
:101EC0008830A8F0892F807E803221F4D23078F0DB
:101ED000C11469F08091DB0182FF09C082E00E9499
:101EE0005A028091D9018770DD24D3948111D12CBD
:101EF0008C2F82958F70883009F42DC108F05FC057
:101F0000823008F46EC0825F8F70823008F4A3C004
:101F1000D11409F457C18091D90180FD53C1F80152
:101F200015828695869586950E94C601C8010E94F5
:101F3000DF0D8091D9018695869586950E94D60100
:101F400041C1CB352CE7D20799F18091DB01002408
:101F500082FF0394802DCC35DC4709F086CF0E94A8
:101F6000B10783CF0E9404088FEF94E3ECE0815027
:101F70009040E040E1F700C0000087E797E79093CA
:101F800001088093000888E19AE00FB6F894A895BC
:101F9000809360000FBE90936000FFCF6FEF7FEFE4
:101FA00080E090E00E94CA190E94120881E0D7CF19
:101FB00080E0D5CFC7010E941D02C82F65CF8930B0
:101FC00009F459C18A5F8F70823008F0A1CFD23FE7
:101FD00009F062C18C2F8F71E1105BC10E94C601B4
:101FE000EFC0FC2FFF70FF2EC03118F0F29490EF7D
:101FF000F922E114B9F0F11469F080E28D0F883014
:1020000010F0D11109C08091D2018F298093D201A3
:102010000E94C8078D2F43C08091DC018F298093D7
:10202000DC01F6CF8D2F0E94FD0AF11409F470CF68
:1020300080E28D0F883010F0D11104C08F2D0E94E6
:10204000720206C0F0948091DC018F218093DC0144
:102050000E94C8075DCF2C2F2F70F22EC07FC03298
:1020600019F0F29480EFF822D11549F0D13009F43B
:1020700052C0E11409F45EC0C114F9F0CBCF8091D5
:10208000DB0182FD16C0E11469F0F11439F0809192
:10209000D2018F298093D2010E94C80780E00E945C
:1020A000C90A36CF80E00E94FD0AF11409F430CF4E
:1020B000C5CFE114A1F0C11004C08F2D0E94180BF0
:1020C00027CF31E0C31224CF8091D3019F2D9823D5
:1020D000F91609F41DCF8F298093D30119CFC110B0
:1020E00017CF8F2D0E94220B9091D3018F2D892322
:1020F000811529F08F2D809589238093D3018091BC
:10210000D4019F2D9823911509F402CFF094F82261
:10211000F092D401FDCEE11429F086E0C81608F053
:10212000F7CECBCF95E0C91608F0F2CE8F2D0E94E6
:10213000220BEECEC114D1F3D93349F4EFEFF7EE11
:1021400023E0E150F0402040E1F700C000008D2F77
:102150000E94FD0ADDCE8C2F8370811146C0E110F4
:102160002FC04D2F429546954770440F440F2D2F99
:102170002F7030E0042E02C0220F331F0A94E2F7C2
:1021800080E090E0D4FF09C08FE090E002C0880FAB
:10219000991F4A95E2F780959095C695C695C370AC
:1021A000C230D1F0C330A9F04091D5015091D60191
:1021B000C13069F0822B932B842395230E94B401B4
:1021C0000E94220560E0C8010E94AC0429CD242BA6
:1021D000352B822B932BF2CF822B932B2091D50181
:1021E0003091D60182279327E9CFE11491F1C0FF06
:1021F000E7CF4D2F429546954770440F440F2D2F42
:102200002F7030E0042E02C0220F331F0A94E2F731
:1022100080E090E0D4FF09C08FE090E002C0880F1A
:10222000991F4A95E2F780959095C695C695C3701B
:10223000C230C1F0C33099F04091D7015091D8011C
:10224000C13059F0822B932B842395230E94B9012E
:10225000B7CF823008F4B4CFCCCF242B352B822BD0
:10226000932BF4CF822B932B2091D7013091D8015F
:1022700082279327EBCFCF70E11439F08C2F0E9487
:10228000C6018D2F0E94180B9BCF8D2F0E94220B11
:102290008C2F0E94D60194CF70F4D03FC9F0D13F6B
:1022A00091F0E11409F458C0C11409F452C08D2F03
:1022B0000E94C90A85CFD33F29F1D43F91F790916D
:1022C000DB0192FD2DC08C2F8F71E11411F386CEAE
:1022D000E114A9F035E0C31608F072CFCF7181E0A8
:1022E00090E0FC0102C0EE0FFF1FCA95E2F7EF017C
:1022F0008091D7019091D8018E279D27A7CFF6E036
:10230000CF16EACF80E090E0E11409F49FCFCF71BF
:1023100081E090E002C0880F991FCA95E2F796CF3E
:10232000E11461F08C2F8F7192FF58CE982F990F86
:10233000990F990F93609093D90150CE81E00E943C
:102340005A0222E0C21608F43BCF82E00E945A02F1
:1023500037CF8C2F8F7142CEC11479F0D93349F425
:102360003FEF87EE93E0315080409040E1F700C0AE
:1023700000008D2F0E94FD0A23CF8C2F8F7189CFF3
:10238000C631FCE7DF0709F03ECD8091D10165E35E
:10239000811101C069E286E391E00E944D0516C0FB
:1023A000C6312CE7D20709F02ECD8091D2018A7A6E
:1023B00091E0811101C090E09093D10165E381111A
:1023C00001C069E286E391E00E9433050E94C807DC
:1023D00017CC80911D02803178F480911C02811508
:1023E00059F0E091DE012091DD0130911802409119
:1023F000170257E02E1301C008956E2F70E05E9F04
:10240000F0011124DF01A152BE4F14968C91149754
:10241000811561F111968C911197831327C08C91CE
:10242000841324C015968C91159781111FC01296A4
:102430008D919C91A0911902B0911A028A1B9B0B5D
:102440008436910598F480911D028F70806180938D
:102450001D02EB51FE4F80818F708061808387E188
:1024600092E00E94DF0D0E9450020895FB01319618
:10247000E770C0CFADE0B0E0E0E4F2E10C945619B3
:102480008C0186E0F801DE01189601900D928A9584
:10249000E1F7F801F580C48087E1882E82E0982E6C
:1024A00070901B02711020C0C114D9F0F11409F40E
:1024B0000DC1C8010E94DB04811509F407C187E042
:1024C000F801D40101900D928A95E1F7F1E0CF1265
:1024D00006C080911702909118020E94CC040E94BD
:1024E000E911FF24F39454C0E080A280B380D0901F
:1024F0001C028091190290911A029501281B390B38
:10250000D11409F4C6C02436310508F09CC0C114AA
:1025100041F390911802C18080911D02803108F032
:1025200058C0C91214C0909117029E1110C0F1102A
:102530004AC08F70806180931D0287E192E00E9403
:10254000DF0D80911D02F8018683F12C21C0F1106E
:102550003AC040E06C2D8E2D0E94060740E06C2DA5
:102560008E2D0E940607F82E8111EFCF8885998560
:102570000E94CC04292F22952F70903470F49F7004
:102580002230A0F09115B1F0F8019681903190F4CD
:102590008F2D2D96EDE00C9472192A5F2F7022304A
:1025A00068F0C8010E94DF0DFD2CF2CF911511F0EB
:1025B000811571F3805E883058F3F3CF803F40F38C
:1025C000815F8330F9CF80911D02816080931D026D
:1025D000BCCFC91213C0909117029E110FC0F11009
:1025E0000DC08683C8010E94DF0D87E0F801A7E1D6
:1025F000B2E001900D928A95E1F773CFC8010E9475
:10260000DB04811509F462C0F11409F45FC0809104
:102610001D02803278F020911702309118023A831F
:102620002983BC82AB827D821E828F83CE0101967C
:102630000E94DF0D87E0F801A7E1B2E001900D9262
:102640008A95E1F74CCF80911D02803150F487E1EB
:1026500092E00E94DF0D87E0F40111928A95E9F77C
:1026600074CFC11409F43DCF209118029181291330
:10267000C5CF909117029E11C1CFF110BFCF8683B5
:10268000C8010E94DF0D87E0F40111928A95E9F7F5
:1026900028CF24363105F8F6C11409F422CFF114FD
:1026A000A9F0909118028181981306C080911702B9
:1026B0008E1102C087E09BCFC8010E94DB0481110C
:1026C000B9CF80911D02816080931D02C8010E94D4
:1026D000DF0D07CFABE1B0E0E0E7F3E10C945F1969
:1026E0004E8B5F8B688F798F8A8F192F9B8F9111FB
:1026F0001092DC011D8A86E0FE017696DE011F96AF
:1027000001900D928A95E1F70A8D011561F00B8B0E
:102710001C8B61E0CE010F960E94AC0461E0CE01FB
:102720000F960E94AC040B8B1C8B87E0FE013F963A
:10273000DE01189601900D928A95E1F7CE01089678
:102740000E943A12811128C02091DD013091DE01F2
:1027500087E0FE013896DE01119601900D928A9570
:10276000E1F78C858115C1F0822F90E0019687708A
:10277000992738171906D9F097E0929FD0011124B4
:10278000A152BE4FFE01319601900D929A95E1F74C
:102790008093DD010E94500217E08091DE0190914C
:1027A000DD01891312C06B96E4E00C947B190E9442
:1027B00004081092DD011092DE0187E0E7E1F2E00B
:1027C000DF011D928A95E9F7E7CF189FC001112418
:1027D00081529E4F0E943A12811529F38091DE01A9
:1027E00090E00196877099278093DE01D6CFA6E00E
:1027F000B0E0EDEFF3E10C945F190E945E058C01EF
:102800008091A4019091A5018017910779F0198218
:102810001A820E945E05BC0149815A8180E090E0E5
:102820000E946A131093A5010093A4012696E4E088
:102830000C947B19CDB7DEB728970FB6F894DEBF9E
:102840000FBECDBF85B7806885BF85B7806885BF5F
:1028500084B7877F84BF0FB6F894A89580916000F5
:10286000886180936000109260000FBE80E890E065
:102870000FB6F89480936100909361000FBE81E0E1
:102880008093030187E095E09093350180933401B4
:102890000E9444060E94AC068091E200846080930E
:1028A000E200789480917001811599F08091E9009F
:1028B0001091EC008F70179511271795182B109217
:1028C000E9008091E80083FD0E9428081F701093A2
:1028D000E90082E084BD93E095BD9AEF97BD8093B7
:1028E0006E001092A0011092A1011092A20110920C
:1028F000A3018091D80080618093D8002AE12A95B5
:10290000F1F700C08091D900182F117080FD04C02C
:102910000E9444061092700110939E0110939F0133
:102920001093040111110E94EF178091040180910E
:10293000040190E0811101C095E090936D0185E064
:10294000891B80936C0107E211E0D8018D918D0104
:102950008F3F11F00E940905B1E00C321B07A9F767
:102960000CE211E042E3E42E41E0F42EF801819103
:102970008F018F3F11F00E940905E016F106B1F7B3
:102980008AE0E1E7F1E0DF01282F1D922A95E9F7BF
:10299000E2E6F1E0DF011D928A95E9F780E090E040
:1029A0000E949619853E9E4F09F461C065EE7EEF48
:1029B00080E090E00E94CA1960E082E090E00E940E
:1029C000AC1981E090E09093D6018093D50161E04D
:1029D00083E090E00E94AC1960E074E184E090E054
:1029E0000E94CA1960E086E090E00E94AC1960E0A5
:1029F00087E090E00E94AC1940E050E0BA0188E026
:102A000090E00E94BE1960E083E290E00E94AC1961
:102A100060E08CE090E00E94AC1960E08DE090E016
:102A20000E94AC1919821A821B821C821D821E828E
:102A30001F82188648E050E067E170E0CE01019601
:102A40000E949C1940E050E0BA018FE190E00E94A2
:102A5000BE1940E050E0BA018FE090E00E94BE193C
:102A600040E050E0BA0183E190E00E94BE1982E0AC
:102A700090E00E948E1980937B0184E090E00E9498
:102A800096199093DB018093DA0183E090E00E9435
:102A90008E1990E00E94B40180919E01811102C0C4
:102AA0000E94F21785E091E09093A7018093A60120
:102AB00096E8C92E91E0D92E28E1A22EB12C3BE751
:102AC000832E31E0932E8091700110E402E1853075
:102AD00009F47AC00E94290B0CE711E081E7E82E87
:102AE00081E0F82ED701F80191918D91CE16DF0685
:102AF00009F474C09817C1F320909E01712CD7017E
:102B00006D907D01F80131908F01361439F1362432
:102B1000512C44244394842D83218115C1F0211428
:102B2000B1F059827A820E945E059C838B83F1E02A
:102B3000FD8391E0842D8621811101C090E09E8368
:102B400049815A816B817C818D810E946A135394E3
:102B5000440C26E05212DFCFF801629273948AE0AF
:102B60007812CDCF0E9476053DC0809170018430EF
:102B700009F110926E010FB6F894A895A09260002A
:102B80000FBE1093600083B7817F846083BF83B7DB
:102B9000816083BF7894889583B78E7F83BF0FB69B
:102BA000F894A895809160008861809360001092ED
:102BB00060000FBE0E94290BE1E7F1E081918111D5
:102BC0001DC08E169F06D1F780917001853009F4E3
:102BD000CCCF0E9404080E9422057CCF98138CCF92
:102BE0000E94F7130E94220590918601891709F42B
:102BF0006ACF809386010E946A0565CF80916F013C
:102C0000811511F3E0E1E9BD09BD09B400FEFDCF76
:102C10008091D8008F7D8093D8008091E000826001
:102C20008093E0008091E00081FDFCCF0E940408C9
:102C3000CBCF1F921FB61F9211248F939F93AF93F8
:102C4000BF9380916E01811113C080915E019091BC
:102C50005F01A0916001B09161014196A11DB11D7C
:102C600080935E0190935F01A0936001B093610136
:102C7000BF91AF919F918F911F901FBE1F9018958C
:102C800078941F921FB61F9211248F939F93AF9336
:102C9000BF9380915E0190915F01A0916001B0911E
:102CA00061010196A11DB11D80935E0190935F01AA
:102CB000A0936001B0936101BF91AF919F918F91FB
:102CC0001F901FBE1F9018951F920F920FB60F9264
:102CD00011242F933F934F935F936F937F938F9321
:102CE0009F93AF93BF93EF93FF938091E10082FF97
:102CF00009C08091E20082FF05C08091E1008B7FD6
:102D00008093E1008091DA0080FF24C08091D80098
:102D100080FF20C08091DA008E7F8093DA0080915E
:102D2000D90080FFA8C080E189BD82E189BD09B4D6
:102D300000FEFDCF81E08093700180914D018111F3
:102D400009C00E9444060E94AC068091E2008460A3
:102D50008093E2008091E10080FF1AC08091E20040
:102D600080FF16C08091E2008E7F8093E200809108
:102D7000E20080618093E2008091D80080628093BD
:102D8000D80019BC85E08093700183E08093030133
:102D90008091E10084FF2FC08091E20084FF2BC06E
:102DA00080E189BD82E189BD09B400FEFDCF80913B
:102DB000D8008F7D8093D8008091E1008F7E809332
:102DC000E1008091E2008F7E8093E2008091E2003A
:102DD00081608093E20080914C01811509F451C01B
:102DE00084E08093700180917001843009F051C0BB
:102DF00082E0809303018091E10083FF2BC08091EA
:102E0000E20083FF27C08091E100877F8093E1008B
:102E100082E08093700110924C018091E1008E7FDE
:102E20008093E1008091E2008E7F8093E2008091A8
:102E3000E20080618093E20060E080E00E947C0616
:102E40008091F00088608093F00081E0809303011E
:102E500080930201FF91EF91BF91AF919F918F916C
:102E60007F916F915F914F913F912F910F900FBE86
:102E70000F901F90189519BC1092700110924D017F
:102E800069CF8091E30087FF02C083E0AACF81E091
:102E9000A8CF81E0AECF1F920F920FB60F921124F0
:102EA000EF92FF920F931F932F933F934F935F9354
:102EB0006F937F938F939F93AF93BF93CF93EF9332
:102EC000FF9309EE10E0F8018081C091EC008F7053
:102ED000C795CC27C795C82B108280EFE82EF12C20
:102EE000F7018081877F808378940E942808F80109
:102EF0001082F701808188608083CF70F801C083E1
:102F0000FF91EF91CF91BF91AF919F918F917F9161
:102F10006F915F914F913F912F911F910F91FF9072
:102F2000EF900F900FBE0F901F9018958EE14A9B67
:102F300002C08A95E1F74A9BFECF08955A9880E235
:102F40008A95F1F75A9A0895FC013BE03A95F1F71A
:102F500098E020E080E031E040E14A95F1F7880F09
:102F60004A9B02C08160232742E04A95F1F70000A6
:102F700040E14A95F1F79A9579F790E19A95F1F742
:102F800099B132E03A95F1F7000040E14A95F1F746
:102F900092FB992790F992272081920F90830895B0
:102FA000A1E0B0E0E6EDF7E10C945D1919828C0127
:102FB0007C01E60EF11C0E949617CE0101960E943C
:102FC000A417F80181938F01EE15FF05A1F781E0A9
:102FD0009981911180E02196E6E00C947919529A3A
:102FE0005A9A089552985A9AEA9AE9E6F0E080814E
:102FF0008F7C808308956150770B91E001C0990F19
:103000006A95EAF7692F90E021E0611108C09115F7
:1030100099F05A9A80E28A95F1F75A980895362FD6
:103020003823311539F05A9A922730E23A95F1F760
:103030006695EBCF5A98F9CF5A98ECCFFF920F9341
:103040001F93CF93DF93EC018C01060F111DF990B4
:103050000E949E1768E08F2D0E94FB17C017D107B2
:10306000B1F7CDB7DEB7E5E00C947A191F920F9255
:103070000FB60F9211240F931F932F933F934F93EB
:103080005F936F937F938F939F93AF93BF93EF93D0
:10309000FF93CF93DF930F92CDB7DEB719820E94D3
:1030A0009617CE0101960E94A417082F0695069543
:1030B0000695982F92959570202F2570920F292FA5
:1030C000237096959695920F982797708981892BF2
:1030D000811509F05CC0043008F059C080E18A9580
:1030E000F1F75A9A529A82E08A95F1F700C05A98FD
:1030F00088E0089F80011124D801A15FBE4F169679
:10310000ED91FC9117973097A9F060913201709181
:10311000330114962D913C911597260F371F119668
:103120008D919C911297680F791F13964C9113976C
:103130008C910995F801E15FFE4F6381611551F0B3
:10314000209132013091330184819581820F931F48
:103150000E941E180E949E1780E18A95F1F75A98E6
:1031600052985A9A80E18A95F1F7F801E15FFE4F93
:103170006081611551F020913201309133018181DC
:103180009281820F931F0E94D0170E9496170F9072
:10319000DF91CF91FF91EF91BF91AF919F918F916F
:1031A0007F916F915F914F913F912F911F910F915F
:1031B0000F900FBE0F901F9018950F931F93CF93F2
:1031C000DF938C0104970CF064C0F894529A5A98DB
:1031D00085E08A95F1F70000C02FC695C570802F55
:1031E0008570C80F8C2F8370C695C69593E0000F2D
:1031F000111F9A95E1F7C80FC8018C2BEC010E94B2
:103200009E1700C068E08C2F0E94FB1790E19A95F2
:10321000F1F752985A9A4A9B35C087E090E04A9954
:1032200033C0F801E15FFE4F6381611561F02091C9
:1032300032013091330184819581820F931F0E9466
:10324000D017811519F10E94961780E28A95F1F73F
:103250005A98529A90E19A95F1F7F801E15FFE4F82
:103260006081611551F020913201309133018181EB
:103270009281820F931F0E941E180E949E177894BD
:1032800081E008C000C0C7CF019749F4529A5A9A0A
:10329000789480E0DF91CF911F910F91089500C045
:1032A000BECF2F923F924F925F926F927F928F92FA
:1032B0009F92AF92BF92CF92DF92EF92FF920F93C5
:1032C0001F93CF93DF93CDB7DEB7CA1BDB0B0FB6CF
:1032D000F894DEBF0FBECDBF09942A88398848888C
:1032E0005F846E847D848C849B84AA84B984C88422
:1032F000DF80EE80FD800C811B81AA81B981CE0F19
:10330000D11D0FB6F894DEBF0FBECDBFED010895FD
:10331000EE0FFF1F0590F491E02D0994F999FECF6F
:1033200092BD81BDF89A992780B50895A8E1B0E0D3
:1033300042E050E00C94D219DC01A40FB51F4150BB
:10334000504048F0CB01840F951F2E910E94AD197B
:1033500041505040D0F70895262FF999FECF92BDE5
:1033600081BDF89A019700B4021639F01FBA20BD4A
:103370000FB6F894FA9AF99A0FBE08950396272F7C
:103380000E94AD190E94AC19252F0E94AD19242F5F
:103390000C94AD190196272F0E94AD190C94AC190D
:1033A000DC01CB01FC01F999FECF06C0F2BDE1BD05
:1033B000F89A319600B40D9241505040B8F70895F4
:1033C000FB01DC0104C08D910190801921F4415072
:1033D0005040C8F7881B990B0895FB01DC0102C01F
:1033E00001900D9241505040D8F70895F894FFCFC6
:1033F00009092F0935092F0935098809AA0935094D
:10340000930AA00A190E1D0EFB0D150E210E250E96
:10341000290E8D0EF50E950E5F0E630E990E670E3A
:103420009D0EA90E730EEE0E770EAD0E7B0EB10E35
:10343000D60E7F0EB50EDD0E850EBB0EC30E6B0EC7
:10344000A10E6F0EA50E890EBF0ECD0EE60EEC0E70
:06345000590E910EFC0E66
:1034560000000100015B056507980599059A0500BE
:10346600000001000000000000000501000000044B
:10347600060000000000006697C63435F6F73133C3
:0434860032368B014E
:00000001FF
